{
  "_format": "hh-sol-artifact-1",
  "contractName": "ZYLToken",
  "sourceName": "contracts/ZYLToken.sol",
  "abi": [
    {
      "inputs": [],
      "stateMutability": "nonpayable",
      "type": "constructor"
    },
    {
      "inputs": [
        {
          "internalType": "address",
          "name": "spender",
          "type": "address"
        },
        {
          "internalType": "uint256",
          "name": "allowance",
          "type": "uint256"
        },
        {
          "internalType": "uint256",
          "name": "needed",
          "type": "uint256"
        }
      ],
      "name": "ERC20InsufficientAllowance",
      "type": "error"
    },
    {
      "inputs": [
        {
          "internalType": "address",
          "name": "sender",
          "type": "address"
        },
        {
          "internalType": "uint256",
          "name": "balance",
          "type": "uint256"
        },
        {
          "internalType": "uint256",
          "name": "needed",
          "type": "uint256"
        }
      ],
      "name": "ERC20InsufficientBalance",
      "type": "error"
    },
    {
      "inputs": [
        {
          "internalType": "address",
          "name": "approver",
          "type": "address"
        }
      ],
      "name": "ERC20InvalidApprover",
      "type": "error"
    },
    {
      "inputs": [
        {
          "internalType": "address",
          "name": "receiver",
          "type": "address"
        }
      ],
      "name": "ERC20InvalidReceiver",
      "type": "error"
    },
    {
      "inputs": [
        {
          "internalType": "address",
          "name": "sender",
          "type": "address"
        }
      ],
      "name": "ERC20InvalidSender",
      "type": "error"
    },
    {
      "inputs": [
        {
          "internalType": "address",
          "name": "spender",
          "type": "address"
        }
      ],
      "name": "ERC20InvalidSpender",
      "type": "error"
    },
    {
      "inputs": [
        {
          "internalType": "address",
          "name": "owner",
          "type": "address"
        }
      ],
      "name": "OwnableInvalidOwner",
      "type": "error"
    },
    {
      "inputs": [
        {
          "internalType": "address",
          "name": "account",
          "type": "address"
        }
      ],
      "name": "OwnableUnauthorizedAccount",
      "type": "error"
    },
    {
      "anonymous": false,
      "inputs": [
        {
          "indexed": true,
          "internalType": "address",
          "name": "owner",
          "type": "address"
        },
        {
          "indexed": true,
          "internalType": "address",
          "name": "spender",
          "type": "address"
        },
        {
          "indexed": false,
          "internalType": "uint256",
          "name": "value",
          "type": "uint256"
        }
      ],
      "name": "Approval",
      "type": "event"
    },
    {
      "anonymous": false,
      "inputs": [
        {
          "indexed": true,
          "internalType": "address",
          "name": "previousOwner",
          "type": "address"
        },
        {
          "indexed": true,
          "internalType": "address",
          "name": "newOwner",
          "type": "address"
        }
      ],
      "name": "OwnershipTransferred",
      "type": "event"
    },
    {
      "anonymous": false,
      "inputs": [
        {
          "indexed": true,
          "internalType": "address",
          "name": "from",
          "type": "address"
        },
        {
          "indexed": true,
          "internalType": "address",
          "name": "to",
          "type": "address"
        },
        {
          "indexed": false,
          "internalType": "uint256",
          "name": "value",
          "type": "uint256"
        }
      ],
      "name": "Transfer",
      "type": "event"
    },
    {
      "inputs": [],
      "name": "MAX_SUPPLY",
      "outputs": [
        {
          "internalType": "uint256",
          "name": "",
          "type": "uint256"
        }
      ],
      "stateMutability": "view",
      "type": "function"
    },
    {
      "inputs": [
        {
          "internalType": "address",
          "name": "owner",
          "type": "address"
        },
        {
          "internalType": "address",
          "name": "spender",
          "type": "address"
        }
      ],
      "name": "allowance",
      "outputs": [
        {
          "internalType": "uint256",
          "name": "",
          "type": "uint256"
        }
      ],
      "stateMutability": "view",
      "type": "function"
    },
    {
      "inputs": [
        {
          "internalType": "address",
          "name": "spender",
          "type": "address"
        },
        {
          "internalType": "uint256",
          "name": "value",
          "type": "uint256"
        }
      ],
      "name": "approve",
      "outputs": [
        {
          "internalType": "bool",
          "name": "",
          "type": "bool"
        }
      ],
      "stateMutability": "nonpayable",
      "type": "function"
    },
    {
      "inputs": [
        {
          "internalType": "address",
          "name": "account",
          "type": "address"
        }
      ],
      "name": "balanceOf",
      "outputs": [
        {
          "internalType": "uint256",
          "name": "",
          "type": "uint256"
        }
      ],
      "stateMutability": "view",
      "type": "function"
    },
    {
      "inputs": [
        {
          "internalType": "uint256",
          "name": "value",
          "type": "uint256"
        }
      ],
      "name": "burn",
      "outputs": [],
      "stateMutability": "nonpayable",
      "type": "function"
    },
    {
      "inputs": [
        {
          "internalType": "address",
          "name": "account",
          "type": "address"
        },
        {
          "internalType": "uint256",
          "name": "value",
          "type": "uint256"
        }
      ],
      "name": "burnFrom",
      "outputs": [],
      "stateMutability": "nonpayable",
      "type": "function"
    },
    {
      "inputs": [],
      "name": "decimals",
      "outputs": [
        {
          "internalType": "uint8",
          "name": "",
          "type": "uint8"
        }
      ],
      "stateMutability": "view",
      "type": "function"
    },
    {
      "inputs": [
        {
          "internalType": "address",
          "name": "to",
          "type": "address"
        },
        {
          "internalType": "uint256",
          "name": "amount",
          "type": "uint256"
        }
      ],
      "name": "faucetMint",
      "outputs": [],
      "stateMutability": "nonpayable",
      "type": "function"
    },
    {
      "inputs": [
        {
          "internalType": "address",
          "name": "to",
          "type": "address"
        },
        {
          "internalType": "uint256",
          "name": "amount",
          "type": "uint256"
        }
      ],
      "name": "mint",
      "outputs": [],
      "stateMutability": "nonpayable",
      "type": "function"
    },
    {
      "inputs": [],
      "name": "name",
      "outputs": [
        {
          "internalType": "string",
          "name": "",
          "type": "string"
        }
      ],
      "stateMutability": "view",
      "type": "function"
    },
    {
      "inputs": [],
      "name": "owner",
      "outputs": [
        {
          "internalType": "address",
          "name": "",
          "type": "address"
        }
      ],
      "stateMutability": "view",
      "type": "function"
    },
    {
      "inputs": [],
      "name": "renounceOwnership",
      "outputs": [],
      "stateMutability": "nonpayable",
      "type": "function"
    },
    {
      "inputs": [],
      "name": "symbol",
      "outputs": [
        {
          "internalType": "string",
          "name": "",
          "type": "string"
        }
      ],
      "stateMutability": "view",
      "type": "function"
    },
    {
      "inputs": [],
      "name": "totalSupply",
      "outputs": [
        {
          "internalType": "uint256",
          "name": "",
          "type": "uint256"
        }
      ],
      "stateMutability": "view",
      "type": "function"
    },
    {
      "inputs": [
        {
          "internalType": "address",
          "name": "to",
          "type": "address"
        },
        {
          "internalType": "uint256",
          "name": "value",
          "type": "uint256"
        }
      ],
      "name": "transfer",
      "outputs": [
        {
          "internalType": "bool",
          "name": "",
          "type": "bool"
        }
      ],
      "stateMutability": "nonpayable",
      "type": "function"
    },
    {
      "inputs": [
        {
          "internalType": "address",
          "name": "from",
          "type": "address"
        },
        {
          "internalType": "address",
          "name": "to",
          "type": "address"
        },
        {
          "internalType": "uint256",
          "name": "value",
          "type": "uint256"
        }
      ],
      "name": "transferFrom",
      "outputs": [
        {
          "internalType": "bool",
          "name": "",
          "type": "bool"
        }
      ],
      "stateMutability": "nonpayable",
      "type": "function"
    },
    {
      "inputs": [
        {
          "internalType": "address",
          "name": "newOwner",
          "type": "address"
        }
      ],
      "name": "transferOwnership",
      "outputs": [],
      "stateMutability": "nonpayable",
      "type": "function"
    }
  ],
  "bytecode": "0x60806040523480156200001157600080fd5b50336040518060400160405280600c81526020016b2d32b634b7b7102a37b5b2b760a11b8152506040518060400160405280600381526020016216965360ea1b815250816003908162000065919062000338565b50600462000074828262000338565b5050506001600160a01b038116620000a757604051631e4fbdf760e01b8152600060048201526024015b60405180910390fd5b620000b281620000d0565b50620000ca336a52b7d2dcc80cd2e400000062000122565b6200042c565b600580546001600160a01b038381166001600160a01b0319831681179093556040519116919082907f8be0079c531659141344cd1fd0a4f28419497f9722a3daafe3b4186f6b6457e090600090a35050565b6001600160a01b0382166200014e5760405163ec442f0560e01b8152600060048201526024016200009e565b6200015c6000838362000160565b5050565b6001600160a01b0383166200018f57806002600082825462000183919062000404565b90915550620002039050565b6001600160a01b03831660009081526020819052604090205481811015620001e45760405163391434e360e21b81526001600160a01b038516600482015260248101829052604481018390526064016200009e565b6001600160a01b03841660009081526020819052604090209082900390555b6001600160a01b038216620002215760028054829003905562000240565b6001600160a01b03821660009081526020819052604090208054820190555b816001600160a01b0316836001600160a01b03167fddf252ad1be2c89b69c2b068fc378daa952ba7f163c4a11628f55a4df523b3ef836040516200028691815260200190565b60405180910390a3505050565b634e487b7160e01b600052604160045260246000fd5b600181811c90821680620002be57607f821691505b602082108103620002df57634e487b7160e01b600052602260045260246000fd5b50919050565b601f8211156200033357600081815260208120601f850160051c810160208610156200030e5750805b601f850160051c820191505b818110156200032f578281556001016200031a565b5050505b505050565b81516001600160401b0381111562000354576200035462000293565b6200036c81620003658454620002a9565b84620002e5565b602080601f831160018114620003a457600084156200038b5750858301515b600019600386901b1c1916600185901b1785556200032f565b600085815260208120601f198616915b82811015620003d557888601518255948401946001909101908401620003b4565b5085821015620003f45787850151600019600388901b60f8161c191681555b5050505050600190811b01905550565b808201808211156200042657634e487b7160e01b600052601160045260246000fd5b92915050565b610a6b806200043c6000396000f3fe608060405234801561001057600080fd5b506004361061010b5760003560e01c806370a08231116100a257806395d89b411161007157806395d89b411461021f578063a5c5127414610227578063a9059cbb1461023a578063dd62ed3e1461024d578063f2fde38b1461028657600080fd5b806370a08231146101c0578063715018a6146101e957806379cc6790146101f15780638da5cb5b1461020457600080fd5b8063313ce567116100de578063313ce5671461017657806332cb6b0c1461018557806340c10f191461019857806342966c68146101ad57600080fd5b806306fdde0314610110578063095ea7b31461012e57806318160ddd1461015157806323b872dd14610163575b600080fd5b610118610299565b604051610125919061089c565b60405180910390f35b61014161013c366004610906565b61032b565b6040519015158152602001610125565b6002545b604051908152602001610125565b610141610171366004610930565b610345565b60405160128152602001610125565b6101556b033b2e3c9fd0803ce800000081565b6101ab6101a6366004610906565b610369565b005b6101ab6101bb36600461096c565b6103e9565b6101556101ce366004610985565b6001600160a01b031660009081526020819052604090205490565b6101ab6103f6565b6101ab6101ff366004610906565b61040a565b6005546040516001600160a01b039091168152602001610125565b61011861041f565b6101ab610235366004610906565b61042e565b610141610248366004610906565b610479565b61015561025b3660046109a7565b6001600160a01b03918216600090815260016020908152604080832093909416825291909152205490565b6101ab610294366004610985565b610487565b6060600380546102a8906109da565b80601f01602080910402602001604051908101604052809291908181526020018280546102d4906109da565b80156103215780601f106102f657610100808354040283529160200191610321565b820191906000526020600020905b81548152906001019060200180831161030457829003601f168201915b5050505050905090565b6000336103398185856104c2565b60019150505b92915050565b6000336103538582856104d4565b61035e858585610553565b506001949350505050565b6103716105b2565b6b033b2e3c9fd0803ce80000008161038860025490565b6103929190610a14565b11156103db5760405162461bcd60e51b815260206004820152601360248201527213585e081cdd5c1c1b1e48195e18d959591959606a1b60448201526064015b60405180910390fd5b6103e582826105df565b5050565b6103f33382610615565b50565b6103fe6105b2565b610408600061064b565b565b6104158233836104d4565b6103e58282610615565b6060600480546102a8906109da565b683635c9adc5dea000008111156103715760405162461bcd60e51b815260206004820152600f60248201526e082dadeeadce840e8dede40d0d2ced608b1b60448201526064016103d2565b600033610339818585610553565b61048f6105b2565b6001600160a01b0381166104b957604051631e4fbdf760e01b8152600060048201526024016103d2565b6103f38161064b565b6104cf838383600161069d565b505050565b6001600160a01b0383811660009081526001602090815260408083209386168352929052205460001981101561054d578181101561053e57604051637dc7a0d960e11b81526001600160a01b038416600482015260248101829052604481018390526064016103d2565b61054d8484848403600061069d565b50505050565b6001600160a01b03831661057d57604051634b637e8f60e11b8152600060048201526024016103d2565b6001600160a01b0382166105a75760405163ec442f0560e01b8152600060048201526024016103d2565b6104cf838383610772565b6005546001600160a01b031633146104085760405163118cdaa760e01b81523360048201526024016103d2565b6001600160a01b0382166106095760405163ec442f0560e01b8152600060048201526024016103d2565b6103e560008383610772565b6001600160a01b03821661063f57604051634b637e8f60e11b8152600060048201526024016103d2565b6103e582600083610772565b600580546001600160a01b038381166001600160a01b0319831681179093556040519116919082907f8be0079c531659141344cd1fd0a4f28419497f9722a3daafe3b4186f6b6457e090600090a35050565b6001600160a01b0384166106c75760405163e602df0560e01b8152600060048201526024016103d2565b6001600160a01b0383166106f157604051634a1406b160e11b8152600060048201526024016103d2565b6001600160a01b038085166000908152600160209081526040808320938716835292905220829055801561054d57826001600160a01b0316846001600160a01b03167f8c5be1e5ebec7d5bd14f71427d1e84f3dd0314c0f7b2291e5b200ac8c7c3b9258460405161076491815260200190565b60405180910390a350505050565b6001600160a01b03831661079d5780600260008282546107929190610a14565b9091555061080f9050565b6001600160a01b038316600090815260208190526040902054818110156107f05760405163391434e360e21b81526001600160a01b038516600482015260248101829052604481018390526064016103d2565b6001600160a01b03841660009081526020819052604090209082900390555b6001600160a01b03821661082b5760028054829003905561084a565b6001600160a01b03821660009081526020819052604090208054820190555b816001600160a01b0316836001600160a01b03167fddf252ad1be2c89b69c2b068fc378daa952ba7f163c4a11628f55a4df523b3ef8360405161088f91815260200190565b60405180910390a3505050565b600060208083528351808285015260005b818110156108c9578581018301518582016040015282016108ad565b506000604082860101526040601f19601f8301168501019250505092915050565b80356001600160a01b038116811461090157600080fd5b919050565b6000806040838503121561091957600080fd5b610922836108ea565b946020939093013593505050565b60008060006060848603121561094557600080fd5b61094e846108ea565b925061095c602085016108ea565b9150604084013590509250925092565b60006020828403121561097e57600080fd5b5035919050565b60006020828403121561099757600080fd5b6109a0826108ea565b9392505050565b600080604083850312156109ba57600080fd5b6109c3836108ea565b91506109d1602084016108ea565b90509250929050565b600181811c908216806109ee57607f821691505b602082108103610a0e57634e487b7160e01b600052602260045260246000fd5b50919050565b8082018082111561033f57634e487b7160e01b600052601160045260246000fdfea2646970667358221220510918bbdbb32f61481a2a01fae36e5246c8deeaaf89fea3a202a6c9cfe4e35e64736f6c63430008140033",
  "linkReferences": {},
  "deployedLinkReferences": {}
}