{
  "_format": "hh-sol-artifact-1",
  "contractName": "Staking",
  "sourceName": "contracts/Staking.sol",
  "abi": [
    {
      "inputs": [
        {
          "internalType": "address",
          "name": "_stakingToken",
          "type": "address"
        }
      ],
      "stateMutability": "nonpayable",
      "type": "constructor"
    },
    {
      "inputs": [
        {
          "internalType": "address",
          "name": "owner",
          "type": "address"
        }
      ],
      "name": "OwnableInvalidOwner",
      "type": "error"
    },
    {
      "inputs": [
        {
          "internalType": "address",
          "name": "account",
          "type": "address"
        }
      ],
      "name": "OwnableUnauthorizedAccount",
      "type": "error"
    },
    {
      "inputs": [],
      "name": "ReentrancyGuardReentrantCall",
      "type": "error"
    },
    {
      "inputs": [
        {
          "internalType": "address",
          "name": "token",
          "type": "address"
        }
      ],
      "name": "SafeERC20FailedOperation",
      "type": "error"
    },
    {
      "anonymous": false,
      "inputs": [
        {
          "indexed": true,
          "internalType": "address",
          "name": "previousOwner",
          "type": "address"
        },
        {
          "indexed": true,
          "internalType": "address",
          "name": "newOwner",
          "type": "address"
        }
      ],
      "name": "OwnershipTransferred",
      "type": "event"
    },
    {
      "anonymous": false,
      "inputs": [
        {
          "indexed": false,
          "internalType": "uint256",
          "name": "newRate",
          "type": "uint256"
        }
      ],
      "name": "RewardRateUpdated",
      "type": "event"
    },
    {
      "anonymous": false,
      "inputs": [
        {
          "indexed": true,
          "internalType": "address",
          "name": "user",
          "type": "address"
        },
        {
          "indexed": false,
          "internalType": "uint256",
          "name": "reward",
          "type": "uint256"
        }
      ],
      "name": "RewardsClaimed",
      "type": "event"
    },
    {
      "anonymous": false,
      "inputs": [
        {
          "indexed": true,
          "internalType": "address",
          "name": "user",
          "type": "address"
        },
        {
          "indexed": false,
          "internalType": "uint256",
          "name": "amount",
          "type": "uint256"
        }
      ],
      "name": "Staked",
      "type": "event"
    },
    {
      "anonymous": false,
      "inputs": [
        {
          "indexed": true,
          "internalType": "address",
          "name": "user",
          "type": "address"
        },
        {
          "indexed": false,
          "internalType": "uint256",
          "name": "amount",
          "type": "uint256"
        }
      ],
      "name": "Unstaked",
      "type": "event"
    },
    {
      "inputs": [],
      "name": "REWARD_DENOMINATOR",
      "outputs": [
        {
          "internalType": "uint256",
          "name": "",
          "type": "uint256"
        }
      ],
      "stateMutability": "view",
      "type": "function"
    },
    {
      "inputs": [],
      "name": "REWARD_PERIOD",
      "outputs": [
        {
          "internalType": "uint256",
          "name": "",
          "type": "uint256"
        }
      ],
      "stateMutability": "view",
      "type": "function"
    },
    {
      "inputs": [
        {
          "internalType": "address",
          "name": "account",
          "type": "address"
        }
      ],
      "name": "balanceOf",
      "outputs": [
        {
          "internalType": "uint256",
          "name": "",
          "type": "uint256"
        }
      ],
      "stateMutability": "view",
      "type": "function"
    },
    {
      "inputs": [],
      "name": "claimRewards",
      "outputs": [],
      "stateMutability": "nonpayable",
      "type": "function"
    },
    {
      "inputs": [
        {
          "internalType": "uint256",
          "name": "amount",
          "type": "uint256"
        }
      ],
      "name": "depositRewards",
      "outputs": [],
      "stateMutability": "nonpayable",
      "type": "function"
    },
    {
      "inputs": [],
      "name": "emergencyWithdraw",
      "outputs": [],
      "stateMutability": "nonpayable",
      "type": "function"
    },
    {
      "inputs": [
        {
          "internalType": "address",
          "name": "user",
          "type": "address"
        }
      ],
      "name": "getStakeInfo",
      "outputs": [
        {
          "internalType": "uint256",
          "name": "amount",
          "type": "uint256"
        },
        {
          "internalType": "uint256",
          "name": "startTime",
          "type": "uint256"
        },
        {
          "internalType": "uint256",
          "name": "lastClaimTime",
          "type": "uint256"
        },
        {
          "internalType": "uint256",
          "name": "pending",
          "type": "uint256"
        }
      ],
      "stateMutability": "view",
      "type": "function"
    },
    {
      "inputs": [],
      "name": "owner",
      "outputs": [
        {
          "internalType": "address",
          "name": "",
          "type": "address"
        }
      ],
      "stateMutability": "view",
      "type": "function"
    },
    {
      "inputs": [
        {
          "internalType": "address",
          "name": "user",
          "type": "address"
        }
      ],
      "name": "pendingRewards",
      "outputs": [
        {
          "internalType": "uint256",
          "name": "",
          "type": "uint256"
        }
      ],
      "stateMutability": "view",
      "type": "function"
    },
    {
      "inputs": [],
      "name": "renounceOwnership",
      "outputs": [],
      "stateMutability": "nonpayable",
      "type": "function"
    },
    {
      "inputs": [],
      "name": "rewardRate",
      "outputs": [
        {
          "internalType": "uint256",
          "name": "",
          "type": "uint256"
        }
      ],
      "stateMutability": "view",
      "type": "function"
    },
    {
      "inputs": [
        {
          "internalType": "uint256",
          "name": "newRate",
          "type": "uint256"
        }
      ],
      "name": "setRewardRate",
      "outputs": [],
      "stateMutability": "nonpayable",
      "type": "function"
    },
    {
      "inputs": [
        {
          "internalType": "uint256",
          "name": "amount",
          "type": "uint256"
        }
      ],
      "name": "stake",
      "outputs": [],
      "stateMutability": "nonpayable",
      "type": "function"
    },
    {
      "inputs": [
        {
          "internalType": "address",
          "name": "",
          "type": "address"
        }
      ],
      "name": "stakes",
      "outputs": [
        {
          "internalType": "uint256",
          "name": "amount",
          "type": "uint256"
        },
        {
          "internalType": "uint256",
          "name": "startTime",
          "type": "uint256"
        },
        {
          "internalType": "uint256",
          "name": "lastClaimTime",
          "type": "uint256"
        }
      ],
      "stateMutability": "view",
      "type": "function"
    },
    {
      "inputs": [],
      "name": "stakingToken",
      "outputs": [
        {
          "internalType": "contract IERC20",
          "name": "",
          "type": "address"
        }
      ],
      "stateMutability": "view",
      "type": "function"
    },
    {
      "inputs": [],
      "name": "totalStaked",
      "outputs": [
        {
          "internalType": "uint256",
          "name": "",
          "type": "uint256"
        }
      ],
      "stateMutability": "view",
      "type": "function"
    },
    {
      "inputs": [
        {
          "internalType": "address",
          "name": "newOwner",
          "type": "address"
        }
      ],
      "name": "transferOwnership",
      "outputs": [],
      "stateMutability": "nonpayable",
      "type": "function"
    },
    {
      "inputs": [
        {
          "internalType": "uint256",
          "name": "amount",
          "type": "uint256"
        }
      ],
      "name": "unstake",
      "outputs": [],
      "stateMutability": "nonpayable",
      "type": "function"
    }
  ],
  "bytecode": "0x6080604052606460035534801561001557600080fd5b50604051610ef6380380610ef683398101604081905261003491610134565b338061005b57604051631e4fbdf760e01b8152600060048201526024015b60405180910390fd5b610064816100e4565b50600180556001600160a01b0381166100bf5760405162461bcd60e51b815260206004820152601560248201527f496e76616c696420746f6b656e206164647265737300000000000000000000006044820152606401610052565b600280546001600160a01b0319166001600160a01b0392909216919091179055610164565b600080546001600160a01b038381166001600160a01b0319831681178455604051919092169283917f8be0079c531659141344cd1fd0a4f28419497f9722a3daafe3b4186f6b6457e09190a35050565b60006020828403121561014657600080fd5b81516001600160a01b038116811461015d57600080fd5b9392505050565b610d83806101736000396000f3fe608060405234801561001057600080fd5b50600436106101165760003560e01c8063817b1cd2116100a25780639e447fc6116100715780639e447fc61461024d578063a694fc3a14610260578063c345315314610273578063db2e21bc146102a6578063f2fde38b146102ae57600080fd5b8063817b1cd214610217578063819a9398146102205780638bdf67f2146102295780638da5cb5b1461023c57600080fd5b8063372500ab116100e9578063372500ab146101aa57806370a08231146101b2578063715018a6146101db57806372f702f3146101e35780637b0a47ee1461020e57600080fd5b80630a171df81461011b57806316934fc4146101385780632e17de781461018257806331d7a26214610197575b600080fd5b6101256201518081565b6040519081526020015b60405180910390f35b610167610146366004610c41565b60046020526000908152604090208054600182015460029092015490919083565b6040805193845260208401929092529082015260600161012f565b610195610190366004610c71565b6102c1565b005b6101256101a5366004610c41565b610443565b6101956104ff565b6101256101c0366004610c41565b6001600160a01b031660009081526004602052604090205490565b61019561056a565b6002546101f6906001600160a01b031681565b6040516001600160a01b03909116815260200161012f565b61012560035481565b61012560055481565b61012561271081565b610195610237366004610c71565b61057c565b6000546001600160a01b03166101f6565b61019561025b366004610c71565b61059c565b61019561026e366004610c71565b610621565b610286610281366004610c41565b61072a565b60408051948552602085019390935291830152606082015260800161012f565b61019561078a565b6101956102bc366004610c41565b610854565b6102c961088f565b600081116103115760405162461bcd60e51b815260206004820152601060248201526f043616e6e6f7420756e7374616b6520360841b60448201526064015b60405180910390fd5b336000908152600460205260409020548111156103705760405162461bcd60e51b815260206004820152601a60248201527f496e73756666696369656e74207374616b656420616d6f756e740000000000006044820152606401610308565b610379336108b9565b3360009081526004602052604081208054839290610398908490610ca0565b9250508190555080600560008282546103b19190610ca0565b90915550503360009081526004602052604081205490036103ea5733600090815260046020526040812081815560018101829055600201555b600254610401906001600160a01b03163383610ab5565b60405181815233907f0f5bb82176feb1b5e747e28471aa92156a04d9f3ab9f45f28e2d704232b93f75906020015b60405180910390a261044060018055565b50565b6001600160a01b038116600090815260046020908152604080832081516060810183528154808252600183015494820194909452600290910154918101919091529082036104945750600092915050565b60008160400151426104a69190610ca0565b905060006104b76201518083610cb9565b9050806000036104cc57506000949350505050565b6127108160035485600001516104e29190610cdb565b6104ec9190610cdb565b6104f69190610cb9565b95945050505050565b61050761088f565b336000908152600460205260409020546105565760405162461bcd60e51b815260206004820152601060248201526f139bc81cdd185ad95908185b5bdd5b9d60821b6044820152606401610308565b61055f336108b9565b61056860018055565b565b610572610b14565b6105686000610b41565b610584610b14565b600254610440906001600160a01b0316333084610b91565b6105a4610b14565b6103e88111156105e65760405162461bcd60e51b815260206004820152600d60248201526c0a4c2e8ca40e8dede40d0d2ced609b1b6044820152606401610308565b60038190556040518181527f41d466ebd06fb97e7786086ac8b69b7eb7da798592036251291d34e9791cde019060200160405180910390a150565b61062961088f565b6000811161066a5760405162461bcd60e51b815260206004820152600e60248201526d043616e6e6f74207374616b6520360941b6044820152606401610308565b336000908152600460205260409020541561068857610688336108b9565b6002546106a0906001600160a01b0316333084610b91565b33600090815260046020526040812080548392906106bf908490610cf2565b90915550503360009081526004602052604081204260018201819055600290910155600580548392906106f3908490610cf2565b909155505060405181815233907f9e71bc8eea02a63969f509818f2dafb9254532904319f9dbda79b67bd34a5f3d9060200161042f565b6001600160a01b0381166000908152600460209081526040808320815160608101835281548082526001830154948201859052600290920154928101839052849384938493919061077a89610443565b9450945094509450509193509193565b610792610b14565b6002546040516370a0823160e01b81523060048201526000916001600160a01b0316906370a0823190602401602060405180830381865afa1580156107db573d6000803e3d6000fd5b505050506040513d601f19601f820116820180604052508101906107ff9190610d05565b905060006005548211610813576000610820565b6005546108209083610ca0565b905080156108505761085061083d6000546001600160a01b031690565b6002546001600160a01b03169083610ab5565b5050565b61085c610b14565b6001600160a01b03811661088657604051631e4fbdf760e01b815260006004820152602401610308565b61044081610b41565b6002600154036108b257604051633ee5aeb560e01b815260040160405180910390fd5b6002600155565b60006108c482610443565b90508015610850576001600160a01b03828116600081815260046020526040808220426002918201555490516024810193909352604483018590529092169060640160408051601f198184030181529181526020820180516001600160e01b0316632971449d60e21b1790525161093b9190610d1e565b6000604051808303816000865af19150503d8060008114610978576040519150601f19603f3d011682016040523d82523d6000602084013e61097d565b606091505b5050905080610a66576002546040516370a0823160e01b81523060048201526000916001600160a01b0316906370a0823190602401602060405180830381865afa1580156109cf573d6000803e3d6000fd5b505050506040513d601f19601f820116820180604052508101906109f39190610d05565b905060006005548211610a07576000610a14565b600554610a149083610ca0565b9050838110610a3957600254610a34906001600160a01b03168686610ab5565b610a63565b8015610a5e57600254610a56906001600160a01b03168683610ab5565b809350610a63565b600093505b50505b8115610ab057826001600160a01b03167ffc30cddea38e2bf4d6ea7d3f9ed3b6ad7f176419f4963bd81318067a4aee73fe83604051610aa791815260200190565b60405180910390a25b505050565b6040516001600160a01b03838116602483015260448201839052610ab091859182169063a9059cbb906064015b604051602081830303815290604052915060e01b6020820180516001600160e01b038381831617835250505050610bd0565b6000546001600160a01b031633146105685760405163118cdaa760e01b8152336004820152602401610308565b600080546001600160a01b038381166001600160a01b0319831681178455604051919092169283917f8be0079c531659141344cd1fd0a4f28419497f9722a3daafe3b4186f6b6457e09190a35050565b6040516001600160a01b038481166024830152838116604483015260648201839052610bca9186918216906323b872dd90608401610ae2565b50505050565b600080602060008451602086016000885af180610bf3576040513d6000823e3d81fd5b50506000513d91508115610c0b578060011415610c18565b6001600160a01b0384163b155b15610bca57604051635274afe760e01b81526001600160a01b0385166004820152602401610308565b600060208284031215610c5357600080fd5b81356001600160a01b0381168114610c6a57600080fd5b9392505050565b600060208284031215610c8357600080fd5b5035919050565b634e487b7160e01b600052601160045260246000fd5b81810381811115610cb357610cb3610c8a565b92915050565b600082610cd657634e487b7160e01b600052601260045260246000fd5b500490565b8082028115828204841417610cb357610cb3610c8a565b80820180821115610cb357610cb3610c8a565b600060208284031215610d1757600080fd5b5051919050565b6000825160005b81811015610d3f5760208186018101518583015201610d25565b50600092019182525091905056fea26469706673582212205700d433f3480b19c5b88d27e25d76cc42fde80761ac8fc1f21f551c137fbc3964736f6c63430008140033",
  "linkReferences": {},
  "deployedLinkReferences": {}
}