{
  "_format": "hh-sol-artifact-1",
  "contractName": "Faucet",
  "sourceName": "contracts/Faucet.sol",
  "abi": [
    {
      "inputs": [],
      "stateMutability": "nonpayable",
      "type": "constructor"
    },
    {
      "inputs": [
        {
          "internalType": "address",
          "name": "owner",
          "type": "address"
        }
      ],
      "name": "OwnableInvalidOwner",
      "type": "error"
    },
    {
      "inputs": [
        {
          "internalType": "address",
          "name": "account",
          "type": "address"
        }
      ],
      "name": "OwnableUnauthorizedAccount",
      "type": "error"
    },
    {
      "anonymous": false,
      "inputs": [
        {
          "indexed": true,
          "internalType": "address",
          "name": "user",
          "type": "address"
        },
        {
          "indexed": false,
          "internalType": "uint256",
          "name": "amount",
          "type": "uint256"
        }
      ],
      "name": "NativeTokensRequested",
      "type": "event"
    },
    {
      "anonymous": false,
      "inputs": [
        {
          "indexed": true,
          "internalType": "address",
          "name": "previousOwner",
          "type": "address"
        },
        {
          "indexed": true,
          "internalType": "address",
          "name": "newOwner",
          "type": "address"
        }
      ],
      "name": "OwnershipTransferred",
      "type": "event"
    },
    {
      "anonymous": false,
      "inputs": [
        {
          "indexed": true,
          "internalType": "address",
          "name": "token",
          "type": "address"
        },
        {
          "indexed": false,
          "internalType": "bool",
          "name": "status",
          "type": "bool"
        }
      ],
      "name": "TokenWhitelisted",
      "type": "event"
    },
    {
      "anonymous": false,
      "inputs": [
        {
          "indexed": true,
          "internalType": "address",
          "name": "user",
          "type": "address"
        },
        {
          "indexed": true,
          "internalType": "address",
          "name": "token",
          "type": "address"
        },
        {
          "indexed": false,
          "internalType": "uint256",
          "name": "amount",
          "type": "uint256"
        }
      ],
      "name": "TokensRequested",
      "type": "event"
    },
    {
      "inputs": [],
      "name": "COOLDOWN_TIME",
      "outputs": [
        {
          "internalType": "uint256",
          "name": "",
          "type": "uint256"
        }
      ],
      "stateMutability": "view",
      "type": "function"
    },
    {
      "inputs": [],
      "name": "NATIVE_AMOUNT",
      "outputs": [
        {
          "internalType": "uint256",
          "name": "",
          "type": "uint256"
        }
      ],
      "stateMutability": "view",
      "type": "function"
    },
    {
      "inputs": [],
      "name": "TOKEN_AMOUNT",
      "outputs": [
        {
          "internalType": "uint256",
          "name": "",
          "type": "uint256"
        }
      ],
      "stateMutability": "view",
      "type": "function"
    },
    {
      "inputs": [
        {
          "internalType": "address",
          "name": "user",
          "type": "address"
        }
      ],
      "name": "getCooldownTime",
      "outputs": [
        {
          "internalType": "uint256",
          "name": "",
          "type": "uint256"
        }
      ],
      "stateMutability": "view",
      "type": "function"
    },
    {
      "inputs": [
        {
          "internalType": "address",
          "name": "",
          "type": "address"
        }
      ],
      "name": "lastRequestTime",
      "outputs": [
        {
          "internalType": "uint256",
          "name": "",
          "type": "uint256"
        }
      ],
      "stateMutability": "view",
      "type": "function"
    },
    {
      "inputs": [],
      "name": "owner",
      "outputs": [
        {
          "internalType": "address",
          "name": "",
          "type": "address"
        }
      ],
      "stateMutability": "view",
      "type": "function"
    },
    {
      "inputs": [],
      "name": "renounceOwnership",
      "outputs": [],
      "stateMutability": "nonpayable",
      "type": "function"
    },
    {
      "inputs": [],
      "name": "requestNativeTokens",
      "outputs": [],
      "stateMutability": "nonpayable",
      "type": "function"
    },
    {
      "inputs": [
        {
          "internalType": "address",
          "name": "token",
          "type": "address"
        },
        {
          "internalType": "uint256",
          "name": "amount",
          "type": "uint256"
        }
      ],
      "name": "requestTokens",
      "outputs": [],
      "stateMutability": "nonpayable",
      "type": "function"
    },
    {
      "inputs": [
        {
          "internalType": "address",
          "name": "",
          "type": "address"
        }
      ],
      "name": "tokenWhitelist",
      "outputs": [
        {
          "internalType": "bool",
          "name": "",
          "type": "bool"
        }
      ],
      "stateMutability": "view",
      "type": "function"
    },
    {
      "inputs": [
        {
          "internalType": "address",
          "name": "newOwner",
          "type": "address"
        }
      ],
      "name": "transferOwnership",
      "outputs": [],
      "stateMutability": "nonpayable",
      "type": "function"
    },
    {
      "inputs": [
        {
          "internalType": "address",
          "name": "token",
          "type": "address"
        },
        {
          "internalType": "bool",
          "name": "status",
          "type": "bool"
        }
      ],
      "name": "whitelistToken",
      "outputs": [],
      "stateMutability": "nonpayable",
      "type": "function"
    },
    {
      "inputs": [],
      "name": "withdraw",
      "outputs": [],
      "stateMutability": "nonpayable",
      "type": "function"
    },
    {
      "inputs": [
        {
          "internalType": "address",
          "name": "token",
          "type": "address"
        }
      ],
      "name": "withdrawToken",
      "outputs": [],
      "stateMutability": "nonpayable",
      "type": "function"
    },
    {
      "stateMutability": "payable",
      "type": "receive"
    }
  ],
  "bytecode": "0x608060405234801561001057600080fd5b50338061003757604051631e4fbdf760e01b81526000600482015260240160405180910390fd5b61004081610046565b50610096565b600080546001600160a01b038381166001600160a01b0319831681178455604051919092169283917f8be0079c531659141344cd1fd0a4f28419497f9722a3daafe3b4186f6b6457e09190a35050565b610cea806100a56000396000f3fe6080604052600436106100e15760003560e01c806385c95a1e1161007f578063af42156411610059578063af42156414610255578063b951dfb314610275578063d9abd59514610291578063f2fde38b146102a657600080fd5b806385c95a1e146101ed578063894760691461020d5780638da5cb5b1461022d57600080fd5b80633ccfd60b116100bb5780633ccfd60b1461016c578063715018a614610181578063753d7563146101965780637d263245146101d657600080fd5b8063048a1a9d146100ed5780630ffb1d8b1461011d578063394f61811461013f57600080fd5b366100e857005b600080fd5b3480156100f957600080fd5b5061010a683635c9adc5dea0000081565b6040519081526020015b60405180910390f35b34801561012957600080fd5b5061013d610138366004610b4b565b6102c6565b005b34801561014b57600080fd5b5061010a61015a366004610b82565b60016020526000908152604090205481565b34801561017857600080fd5b5061013d61032d565b34801561018d57600080fd5b5061013d6103d4565b3480156101a257600080fd5b506101c66101b1366004610b82565b60026020526000908152604090205460ff1681565b6040519015158152602001610114565b3480156101e257600080fd5b5061010a6201518081565b3480156101f957600080fd5b5061010a610208366004610b82565b6103e8565b34801561021957600080fd5b5061013d610228366004610b82565b610458565b34801561023957600080fd5b506000546040516001600160a01b039091168152602001610114565b34801561026157600080fd5b5061013d610270366004610ba4565b6105b2565b34801561028157600080fd5b5061010a67016345785d8a000081565b34801561029d57600080fd5b5061013d610901565b3480156102b257600080fd5b5061013d6102c1366004610b82565b610a69565b6102ce610aa4565b6001600160a01b038216600081815260026020908152604091829020805460ff191685151590811790915591519182527fef81a9943b96c8df4ef243401c9bf5159146166211356898b52d382086168d92910160405180910390a25050565b610335610aa4565b600080546040516001600160a01b039091169047908381818185875af1925050503d8060008114610382576040519150601f19603f3d011682016040523d82523d6000602084013e610387565b606091505b50509050806103d15760405162461bcd60e51b815260206004820152601160248201527015da5d1a191c985dd85b0819985a5b1959607a1b60448201526064015b60405180910390fd5b50565b6103dc610aa4565b6103e66000610ad1565b565b6001600160a01b0381166000908152600160205260408120544290610411906201518090610be4565b1115610450576001600160a01b0382166000908152600160205260409020544290610440906201518090610be4565b61044a9190610bf7565b92915050565b506000919050565b610460610aa4565b6040516370a0823160e01b815230600482015281906000906001600160a01b038316906370a0823190602401602060405180830381865afa1580156104a9573d6000803e3d6000fd5b505050506040513d601f19601f820116820180604052508101906104cd9190610c0a565b9050816001600160a01b031663a9059cbb6104f06000546001600160a01b031690565b6040516001600160e01b031960e084901b1681526001600160a01b039091166004820152602481018490526044016020604051808303816000875af115801561053d573d6000803e3d6000fd5b505050506040513d601f19601f820116820180604052508101906105619190610c23565b6105ad5760405162461bcd60e51b815260206004820152601760248201527f546f6b656e207769746864726177616c206661696c656400000000000000000060448201526064016103c8565b505050565b336000908152600160205260409020546105d0906201518090610be4565b4210156105ef5760405162461bcd60e51b81526004016103c890610c40565b6001600160a01b03821660009081526002602052604090205460ff1661064f5760405162461bcd60e51b8152602060048201526015602482015274151bdad95b881b9bdd081dda1a5d195b1a5cdd1959605a1b60448201526064016103c8565b683635c9adc5dea0000081111561069f5760405162461bcd60e51b8152602060048201526014602482015273105b5bdd5b9d08195e18d959591cc81b1a5b5a5d60621b60448201526064016103c8565b3360008181526001602052604080822042905551602481019290925260448201839052906001600160a01b0384169060640160408051601f198184030181529181526020820180516001600160e01b0316632971449d60e21b179052516107069190610c85565b6000604051808303816000865af19150503d8060008114610743576040519150601f19603f3d011682016040523d82523d6000602084013e610748565b606091505b50509050806108bc576040516370a0823160e01b8152306004820152839083906001600160a01b038316906370a0823190602401602060405180830381865afa158015610799573d6000803e3d6000fd5b505050506040513d601f19601f820116820180604052508101906107bd9190610c0a565b101561080b5760405162461bcd60e51b815260206004820152601a60248201527f496e73756666696369656e7420746f6b656e2062616c616e636500000000000060448201526064016103c8565b60405163a9059cbb60e01b8152336004820152602481018490526001600160a01b0382169063a9059cbb906044016020604051808303816000875af1158015610858573d6000803e3d6000fd5b505050506040513d601f19601f8201168201806040525081019061087c9190610c23565b6108ba5760405162461bcd60e51b815260206004820152600f60248201526e151c985b9cd9995c8819985a5b1959608a1b60448201526064016103c8565b505b6040518281526001600160a01b0384169033907f1c5cc53931f3686ba63fa014259638e330bd837a70cbdc435883f32fdd2ef45f9060200160405180910390a3505050565b3360009081526001602052604090205461091f906201518090610be4565b42101561093e5760405162461bcd60e51b81526004016103c890610c40565b67016345785d8a00004710156109885760405162461bcd60e51b815260206004820152600f60248201526e46617563657420697320656d70747960881b60448201526064016103c8565b336000818152600160205260408082204290555190919067016345785d8a0000908381818185875af1925050503d80600081146109e1576040519150601f19603f3d011682016040523d82523d6000602084013e6109e6565b606091505b5050905080610a295760405162461bcd60e51b815260206004820152600f60248201526e151c985b9cd9995c8819985a5b1959608a1b60448201526064016103c8565b60405167016345785d8a0000815233907f0d151d94eabebee1c032d00ea8e89cbdaf61b0569b156abdf0a9298ce6bdf4b59060200160405180910390a250565b610a71610aa4565b6001600160a01b038116610a9b57604051631e4fbdf760e01b8152600060048201526024016103c8565b6103d181610ad1565b6000546001600160a01b031633146103e65760405163118cdaa760e01b81523360048201526024016103c8565b600080546001600160a01b038381166001600160a01b0319831681178455604051919092169283917f8be0079c531659141344cd1fd0a4f28419497f9722a3daafe3b4186f6b6457e09190a35050565b80356001600160a01b0381168114610b3857600080fd5b919050565b80151581146103d157600080fd5b60008060408385031215610b5e57600080fd5b610b6783610b21565b91506020830135610b7781610b3d565b809150509250929050565b600060208284031215610b9457600080fd5b610b9d82610b21565b9392505050565b60008060408385031215610bb757600080fd5b610bc083610b21565b946020939093013593505050565b634e487b7160e01b600052601160045260246000fd5b8082018082111561044a5761044a610bce565b8181038181111561044a5761044a610bce565b600060208284031215610c1c57600080fd5b5051919050565b600060208284031215610c3557600080fd5b8151610b9d81610b3d565b60208082526025908201527f506c65617365207761697420323420686f757273206265747765656e20726571604082015264756573747360d81b606082015260800190565b6000825160005b81811015610ca65760208186018101518583015201610c8c565b50600092019182525091905056fea2646970667358221220e0ef0fbad9bb23519e434a19cc14b2af7670134bac645c3f3be91e5f69ac19c764736f6c63430008140033",
  "linkReferences": {},
  "deployedLinkReferences": {}
}