{
  "_format": "hh-sol-artifact-1",
  "contractName": "ZYLFaucet",
  "sourceName": "contracts/ZYLFaucet.sol",
  "abi": [
    {
      "inputs": [
        {
          "internalType": "address",
          "name": "_zylToken",
          "type": "address"
        }
      ],
      "stateMutability": "nonpayable",
      "type": "constructor"
    },
    {
      "inputs": [
        {
          "internalType": "address",
          "name": "owner",
          "type": "address"
        }
      ],
      "name": "OwnableInvalidOwner",
      "type": "error"
    },
    {
      "inputs": [
        {
          "internalType": "address",
          "name": "account",
          "type": "address"
        }
      ],
      "name": "OwnableUnauthorizedAccount",
      "type": "error"
    },
    {
      "anonymous": false,
      "inputs": [
        {
          "indexed": false,
          "internalType": "uint256",
          "name": "newCooldownTime",
          "type": "uint256"
        }
      ],
      "name": "CooldownTimeUpdated",
      "type": "event"
    },
    {
      "anonymous": false,
      "inputs": [
        {
          "indexed": true,
          "internalType": "address",
          "name": "funder",
          "type": "address"
        },
        {
          "indexed": false,
          "internalType": "uint256",
          "name": "amount",
          "type": "uint256"
        }
      ],
      "name": "FaucetFunded",
      "type": "event"
    },
    {
      "anonymous": false,
      "inputs": [
        {
          "indexed": true,
          "internalType": "address",
          "name": "previousOwner",
          "type": "address"
        },
        {
          "indexed": true,
          "internalType": "address",
          "name": "newOwner",
          "type": "address"
        }
      ],
      "name": "OwnershipTransferred",
      "type": "event"
    },
    {
      "anonymous": false,
      "inputs": [
        {
          "indexed": false,
          "internalType": "uint256",
          "name": "newAmount",
          "type": "uint256"
        }
      ],
      "name": "RequestAmountUpdated",
      "type": "event"
    },
    {
      "anonymous": false,
      "inputs": [
        {
          "indexed": true,
          "internalType": "address",
          "name": "user",
          "type": "address"
        },
        {
          "indexed": false,
          "internalType": "uint256",
          "name": "amount",
          "type": "uint256"
        }
      ],
      "name": "TokensRequested",
      "type": "event"
    },
    {
      "inputs": [],
      "name": "cooldownTime",
      "outputs": [
        {
          "internalType": "uint256",
          "name": "",
          "type": "uint256"
        }
      ],
      "stateMutability": "view",
      "type": "function"
    },
    {
      "inputs": [
        {
          "internalType": "uint256",
          "name": "amount",
          "type": "uint256"
        }
      ],
      "name": "emergencyWithdraw",
      "outputs": [],
      "stateMutability": "nonpayable",
      "type": "function"
    },
    {
      "inputs": [
        {
          "internalType": "uint256",
          "name": "amount",
          "type": "uint256"
        }
      ],
      "name": "fundFaucet",
      "outputs": [],
      "stateMutability": "nonpayable",
      "type": "function"
    },
    {
      "inputs": [
        {
          "internalType": "address",
          "name": "user",
          "type": "address"
        }
      ],
      "name": "getCooldownTime",
      "outputs": [
        {
          "internalType": "uint256",
          "name": "",
          "type": "uint256"
        }
      ],
      "stateMutability": "view",
      "type": "function"
    },
    {
      "inputs": [],
      "name": "getFaucetBalance",
      "outputs": [
        {
          "internalType": "uint256",
          "name": "",
          "type": "uint256"
        }
      ],
      "stateMutability": "view",
      "type": "function"
    },
    {
      "inputs": [
        {
          "internalType": "address",
          "name": "",
          "type": "address"
        }
      ],
      "name": "lastRequestTime",
      "outputs": [
        {
          "internalType": "uint256",
          "name": "",
          "type": "uint256"
        }
      ],
      "stateMutability": "view",
      "type": "function"
    },
    {
      "inputs": [],
      "name": "owner",
      "outputs": [
        {
          "internalType": "address",
          "name": "",
          "type": "address"
        }
      ],
      "stateMutability": "view",
      "type": "function"
    },
    {
      "inputs": [],
      "name": "renounceOwnership",
      "outputs": [],
      "stateMutability": "nonpayable",
      "type": "function"
    },
    {
      "inputs": [],
      "name": "requestAmount",
      "outputs": [
        {
          "internalType": "uint256",
          "name": "",
          "type": "uint256"
        }
      ],
      "stateMutability": "view",
      "type": "function"
    },
    {
      "inputs": [],
      "name": "requestTokens",
      "outputs": [],
      "stateMutability": "nonpayable",
      "type": "function"
    },
    {
      "inputs": [
        {
          "internalType": "uint256",
          "name": "newCooldownTime",
          "type": "uint256"
        }
      ],
      "name": "setCooldownTime",
      "outputs": [],
      "stateMutability": "nonpayable",
      "type": "function"
    },
    {
      "inputs": [
        {
          "internalType": "uint256",
          "name": "newAmount",
          "type": "uint256"
        }
      ],
      "name": "setRequestAmount",
      "outputs": [],
      "stateMutability": "nonpayable",
      "type": "function"
    },
    {
      "inputs": [
        {
          "internalType": "address",
          "name": "newOwner",
          "type": "address"
        }
      ],
      "name": "transferOwnership",
      "outputs": [],
      "stateMutability": "nonpayable",
      "type": "function"
    },
    {
      "inputs": [],
      "name": "zylToken",
      "outputs": [
        {
          "internalType": "contract IERC20",
          "name": "",
          "type": "address"
        }
      ],
      "stateMutability": "view",
      "type": "function"
    }
  ],
  "bytecode": "0x608060405268056bc75e2d631000006002556201518060035534801561002457600080fd5b50604051610c91380380610c918339810160408190526100439161013f565b338061006a57604051631e4fbdf760e01b8152600060048201526024015b60405180910390fd5b610073816100ef565b506001600160a01b0381166100ca5760405162461bcd60e51b815260206004820152601560248201527f496e76616c696420746f6b656e206164647265737300000000000000000000006044820152606401610061565b600180546001600160a01b0319166001600160a01b039290921691909117905561016f565b600080546001600160a01b038381166001600160a01b0319831681178455604051919092169283917f8be0079c531659141344cd1fd0a4f28419497f9722a3daafe3b4186f6b6457e09190a35050565b60006020828403121561015157600080fd5b81516001600160a01b038116811461016857600080fd5b9392505050565b610b138061017e6000396000f3fe608060405234801561001057600080fd5b50600436106100ea5760003560e01c806385c95a1e1161008c578063b319c6b711610066578063b319c6b7146101cf578063f1f959a6146101d8578063f2fde38b146101e0578063f52ec46c146101f357600080fd5b806385c95a1e146101985780638da5cb5b146101ab578063ae0140b4146101bc57600080fd5b80634015a4d7116100c85780634015a4d7146101575780635312ea8e1461016a5780636ff732011461017d578063715018a61461019057600080fd5b806331fd8d0b146100ef578063359cf2b71461011f578063394f618114610129575b600080fd5b600154610102906001600160a01b031681565b6040516001600160a01b0390911681526020015b60405180910390f35b6101276101fc565b005b610149610137366004610a1d565b60046020526000908152604090205481565b604051908152602001610116565b610127610165366004610a4d565b610445565b610127610178366004610a4d565b6104d9565b61012761018b366004610a4d565b610682565b61012761070f565b6101496101a6366004610a1d565b610723565b6000546001600160a01b0316610102565b6101276101ca366004610a4d565b610792565b61014960035481565b6101496108f0565b6101276101ee366004610a1d565b610962565b61014960025481565b600354336000908152600460205260409020546102199190610a7c565b42101561026d5760405162461bcd60e51b815260206004820152601f60248201527f506c65617365207761697420666f7220636f6f6c646f776e20706572696f640060448201526064015b60405180910390fd5b6002546001546040516370a0823160e01b81523060048201526001600160a01b03909116906370a0823190602401602060405180830381865afa1580156102b8573d6000803e3d6000fd5b505050506040513d601f19601f820116820180604052508101906102dc9190610a8f565b10156103385760405162461bcd60e51b815260206004820152602560248201527f46617563657420697320656d707479202d20706c65617365206e6f746966792060448201526430b236b4b760d91b6064820152608401610264565b33600081815260046020819052604091829020429055600154600254925163a9059cbb60e01b81529182019390935260248101919091526001600160a01b039091169063a9059cbb906044016020604051808303816000875af11580156103a3573d6000803e3d6000fd5b505050506040513d601f19601f820116820180604052508101906103c79190610aa8565b61040b5760405162461bcd60e51b8152602060048201526015602482015274151bdad95b881d1c985b9cd9995c8819985a5b1959605a1b6044820152606401610264565b60025460405190815233907fc3fb6c98272d7a0d5dc26727b61c00ece2e5bf3dbdc0284659e28d441c1ce06c9060200160405180910390a2565b61044d6109a0565b6000811161049d5760405162461bcd60e51b815260206004820152601d60248201527f416d6f756e74206d7573742062652067726561746572207468616e20300000006044820152606401610264565b60028190556040518181527f54b9e19d59e861eb2e5ca029327736970092dfb4f1d7ed0873cc062f15b213f8906020015b60405180910390a150565b6104e16109a0565b6001546040516370a0823160e01b81523060048201526000916001600160a01b0316906370a0823190602401602060405180830381865afa15801561052a573d6000803e3d6000fd5b505050506040513d601f19601f8201168201806040525081019061054e9190610a8f565b90506000821561055e5782610560565b815b9050818111156105a95760405162461bcd60e51b8152602060048201526014602482015273496e73756666696369656e742062616c616e636560601b6044820152606401610264565b6001546001600160a01b031663a9059cbb6105cc6000546001600160a01b031690565b6040516001600160e01b031960e084901b1681526001600160a01b039091166004820152602481018490526044016020604051808303816000875af1158015610619573d6000803e3d6000fd5b505050506040513d601f19601f8201168201806040525081019061063d9190610aa8565b61067d5760405162461bcd60e51b815260206004820152601160248201527015da5d1a191c985dd85b0819985a5b1959607a1b6044820152606401610264565b505050565b61068a6109a0565b600081116106da5760405162461bcd60e51b815260206004820152601f60248201527f436f6f6c646f776e206d7573742062652067726561746572207468616e2030006044820152606401610264565b60038190556040518181527fc4d978175d3c07d16372ccefaf0cd6282f07b3b93c73c51ca598d816838b623b906020016104ce565b6107176109a0565b61072160006109cd565b565b6003546001600160a01b0382166000908152600460205260408120549091429161074d9190610a7c565b111561078a576003546001600160a01b038316600090815260046020526040902054429161077a91610a7c565b6107849190610aca565b92915050565b506000919050565b600081116107e25760405162461bcd60e51b815260206004820152601d60248201527f416d6f756e74206d7573742062652067726561746572207468616e20300000006044820152606401610264565b6001546040516323b872dd60e01b8152336004820152306024820152604481018390526001600160a01b03909116906323b872dd906064016020604051808303816000875af1158015610839573d6000803e3d6000fd5b505050506040513d601f19601f8201168201806040525081019061085d9190610aa8565b6108b85760405162461bcd60e51b815260206004820152602660248201527f5472616e73666572206661696c6564202d20636865636b20746f6b656e2061706044820152651c1c9bdd985b60d21b6064820152608401610264565b60405181815233907f7a5b46da290ee3d909b4070dcddb80b741e0365f2deb452791308c5c079fc5739060200160405180910390a250565b6001546040516370a0823160e01b81523060048201526000916001600160a01b0316906370a0823190602401602060405180830381865afa158015610939573d6000803e3d6000fd5b505050506040513d601f19601f8201168201806040525081019061095d9190610a8f565b905090565b61096a6109a0565b6001600160a01b03811661099457604051631e4fbdf760e01b815260006004820152602401610264565b61099d816109cd565b50565b6000546001600160a01b031633146107215760405163118cdaa760e01b8152336004820152602401610264565b600080546001600160a01b038381166001600160a01b0319831681178455604051919092169283917f8be0079c531659141344cd1fd0a4f28419497f9722a3daafe3b4186f6b6457e09190a35050565b600060208284031215610a2f57600080fd5b81356001600160a01b0381168114610a4657600080fd5b9392505050565b600060208284031215610a5f57600080fd5b5035919050565b634e487b7160e01b600052601160045260246000fd5b8082018082111561078457610784610a66565b600060208284031215610aa157600080fd5b5051919050565b600060208284031215610aba57600080fd5b81518015158114610a4657600080fd5b8181038181111561078457610784610a6656fea2646970667358221220726921974fcfbdc2d13d3def3d78184ddf1a39f6fa3719a0eebddcccaf8b459864736f6c63430008140033",
  "linkReferences": {},
  "deployedLinkReferences": {}
}