{
  "_format": "hh-sol-artifact-1",
  "contractName": "SimpleSwap",
  "sourceName": "contracts/SimpleSwap.sol",
  "abi": [
    {
      "inputs": [],
      "stateMutability": "nonpayable",
      "type": "constructor"
    },
    {
      "inputs": [
        {
          "internalType": "address",
          "name": "owner",
          "type": "address"
        }
      ],
      "name": "OwnableInvalidOwner",
      "type": "error"
    },
    {
      "inputs": [
        {
          "internalType": "address",
          "name": "account",
          "type": "address"
        }
      ],
      "name": "OwnableUnauthorizedAccount",
      "type": "error"
    },
    {
      "inputs": [],
      "name": "ReentrancyGuardReentrantCall",
      "type": "error"
    },
    {
      "inputs": [
        {
          "internalType": "address",
          "name": "token",
          "type": "address"
        }
      ],
      "name": "SafeERC20FailedOperation",
      "type": "error"
    },
    {
      "anonymous": false,
      "inputs": [
        {
          "indexed": true,
          "internalType": "address",
          "name": "provider",
          "type": "address"
        },
        {
          "indexed": true,
          "internalType": "address",
          "name": "token0",
          "type": "address"
        },
        {
          "indexed": true,
          "internalType": "address",
          "name": "token1",
          "type": "address"
        },
        {
          "indexed": false,
          "internalType": "uint256",
          "name": "amount0",
          "type": "uint256"
        },
        {
          "indexed": false,
          "internalType": "uint256",
          "name": "amount1",
          "type": "uint256"
        },
        {
          "indexed": false,
          "internalType": "uint256",
          "name": "liquidity",
          "type": "uint256"
        }
      ],
      "name": "LiquidityAdded",
      "type": "event"
    },
    {
      "anonymous": false,
      "inputs": [
        {
          "indexed": true,
          "internalType": "address",
          "name": "provider",
          "type": "address"
        },
        {
          "indexed": true,
          "internalType": "address",
          "name": "token0",
          "type": "address"
        },
        {
          "indexed": true,
          "internalType": "address",
          "name": "token1",
          "type": "address"
        },
        {
          "indexed": false,
          "internalType": "uint256",
          "name": "amount0",
          "type": "uint256"
        },
        {
          "indexed": false,
          "internalType": "uint256",
          "name": "amount1",
          "type": "uint256"
        },
        {
          "indexed": false,
          "internalType": "uint256",
          "name": "liquidity",
          "type": "uint256"
        }
      ],
      "name": "LiquidityRemoved",
      "type": "event"
    },
    {
      "anonymous": false,
      "inputs": [
        {
          "indexed": true,
          "internalType": "address",
          "name": "previousOwner",
          "type": "address"
        },
        {
          "indexed": true,
          "internalType": "address",
          "name": "newOwner",
          "type": "address"
        }
      ],
      "name": "OwnershipTransferred",
      "type": "event"
    },
    {
      "anonymous": false,
      "inputs": [
        {
          "indexed": true,
          "internalType": "address",
          "name": "user",
          "type": "address"
        },
        {
          "indexed": true,
          "internalType": "address",
          "name": "tokenIn",
          "type": "address"
        },
        {
          "indexed": true,
          "internalType": "address",
          "name": "tokenOut",
          "type": "address"
        },
        {
          "indexed": false,
          "internalType": "uint256",
          "name": "amountIn",
          "type": "uint256"
        },
        {
          "indexed": false,
          "internalType": "uint256",
          "name": "amountOut",
          "type": "uint256"
        }
      ],
      "name": "Swap",
      "type": "event"
    },
    {
      "inputs": [],
      "name": "FEE_DENOMINATOR",
      "outputs": [
        {
          "internalType": "uint256",
          "name": "",
          "type": "uint256"
        }
      ],
      "stateMutability": "view",
      "type": "function"
    },
    {
      "inputs": [],
      "name": "FEE_PERCENT",
      "outputs": [
        {
          "internalType": "uint256",
          "name": "",
          "type": "uint256"
        }
      ],
      "stateMutability": "view",
      "type": "function"
    },
    {
      "inputs": [
        {
          "internalType": "address",
          "name": "token0",
          "type": "address"
        },
        {
          "internalType": "address",
          "name": "token1",
          "type": "address"
        },
        {
          "internalType": "uint256",
          "name": "amount0",
          "type": "uint256"
        },
        {
          "internalType": "uint256",
          "name": "amount1",
          "type": "uint256"
        }
      ],
      "name": "addLiquidity",
      "outputs": [
        {
          "internalType": "uint256",
          "name": "liquidityMinted",
          "type": "uint256"
        }
      ],
      "stateMutability": "nonpayable",
      "type": "function"
    },
    {
      "inputs": [
        {
          "internalType": "address",
          "name": "tokenIn",
          "type": "address"
        },
        {
          "internalType": "address",
          "name": "tokenOut",
          "type": "address"
        },
        {
          "internalType": "uint256",
          "name": "amountIn",
          "type": "uint256"
        }
      ],
      "name": "getAmountOut",
      "outputs": [
        {
          "internalType": "uint256",
          "name": "",
          "type": "uint256"
        }
      ],
      "stateMutability": "view",
      "type": "function"
    },
    {
      "inputs": [
        {
          "internalType": "address",
          "name": "token0",
          "type": "address"
        },
        {
          "internalType": "address",
          "name": "token1",
          "type": "address"
        }
      ],
      "name": "getPoolInfo",
      "outputs": [
        {
          "internalType": "uint256",
          "name": "reserve0",
          "type": "uint256"
        },
        {
          "internalType": "uint256",
          "name": "reserve1",
          "type": "uint256"
        },
        {
          "internalType": "uint256",
          "name": "totalLiquidity",
          "type": "uint256"
        }
      ],
      "stateMutability": "view",
      "type": "function"
    },
    {
      "inputs": [
        {
          "internalType": "address",
          "name": "",
          "type": "address"
        },
        {
          "internalType": "address",
          "name": "",
          "type": "address"
        },
        {
          "internalType": "address",
          "name": "",
          "type": "address"
        }
      ],
      "name": "liquidity",
      "outputs": [
        {
          "internalType": "uint256",
          "name": "",
          "type": "uint256"
        }
      ],
      "stateMutability": "view",
      "type": "function"
    },
    {
      "inputs": [],
      "name": "owner",
      "outputs": [
        {
          "internalType": "address",
          "name": "",
          "type": "address"
        }
      ],
      "stateMutability": "view",
      "type": "function"
    },
    {
      "inputs": [
        {
          "internalType": "address",
          "name": "",
          "type": "address"
        },
        {
          "internalType": "address",
          "name": "",
          "type": "address"
        }
      ],
      "name": "pools",
      "outputs": [
        {
          "internalType": "uint256",
          "name": "reserve0",
          "type": "uint256"
        },
        {
          "internalType": "uint256",
          "name": "reserve1",
          "type": "uint256"
        },
        {
          "internalType": "uint256",
          "name": "totalLiquidity",
          "type": "uint256"
        }
      ],
      "stateMutability": "view",
      "type": "function"
    },
    {
      "inputs": [
        {
          "internalType": "address",
          "name": "token0",
          "type": "address"
        },
        {
          "internalType": "address",
          "name": "token1",
          "type": "address"
        },
        {
          "internalType": "uint256",
          "name": "liquidityAmount",
          "type": "uint256"
        }
      ],
      "name": "removeLiquidity",
      "outputs": [
        {
          "internalType": "uint256",
          "name": "amount0",
          "type": "uint256"
        },
        {
          "internalType": "uint256",
          "name": "amount1",
          "type": "uint256"
        }
      ],
      "stateMutability": "nonpayable",
      "type": "function"
    },
    {
      "inputs": [],
      "name": "renounceOwnership",
      "outputs": [],
      "stateMutability": "nonpayable",
      "type": "function"
    },
    {
      "inputs": [
        {
          "internalType": "address",
          "name": "tokenIn",
          "type": "address"
        },
        {
          "internalType": "address",
          "name": "tokenOut",
          "type": "address"
        },
        {
          "internalType": "uint256",
          "name": "amountIn",
          "type": "uint256"
        },
        {
          "internalType": "uint256",
          "name": "minAmountOut",
          "type": "uint256"
        }
      ],
      "name": "swap",
      "outputs": [
        {
          "internalType": "uint256",
          "name": "amountOut",
          "type": "uint256"
        }
      ],
      "stateMutability": "nonpayable",
      "type": "function"
    },
    {
      "inputs": [
        {
          "internalType": "address",
          "name": "newOwner",
          "type": "address"
        }
      ],
      "name": "transferOwnership",
      "outputs": [],
      "stateMutability": "nonpayable",
      "type": "function"
    }
  ],
  "bytecode": "0x608060405234801561001057600080fd5b50338061003757604051631e4fbdf760e01b81526000600482015260240160405180910390fd5b6100408161004a565b506001805561009a565b600080546001600160a01b038381166001600160a01b0319831681178455604051919092169283917f8be0079c531659141344cd1fd0a4f28419497f9722a3daafe3b4186f6b6457e09190a35050565b61106d806100a96000396000f3fe608060405234801561001057600080fd5b50600436106100b45760003560e01c8063d671159711610071578063d67115971461017b578063d73792a9146101ac578063d752fab2146101b5578063eaf98d23146101dd578063f2fde38b146101e5578063fe029156146101f857600080fd5b8063486e51f4146100b95780634aa06652146100ec578063715018a61461010d5780638da5cb5b14610117578063901754d714610132578063cf6c62ea14610168575b600080fd5b6100cc6100c7366004610ead565b61020b565b604080519384526020840192909252908201526060015b60405180910390f35b6100ff6100fa366004610ee0565b6102ca565b6040519081526020016100e3565b6101156103e6565b005b6000546040516001600160a01b0390911681526020016100e3565b6100cc610140366004610ead565b6002602081815260009384526040808520909152918352912080546001820154919092015483565b6100ff610176366004610f1c565b6103fa565b6100ff610189366004610f5e565b600360209081526000938452604080852082529284528284209052825290205481565b6100ff6103e881565b6101c86101c3366004610ee0565b6106d0565b604080519283526020830191909152016100e3565b6100ff600381565b6101156101f3366004610fa1565b61092d565b6100ff610206366004610f1c565b61096b565b6000806000806000856001600160a01b0316876001600160a01b031610610233578587610236565b86865b6001600160a01b038083166000818152600260208181526040808420868816855282529283902083516060810185528154815260018201549281019290925290910154918101919091529395509193508916036102aa578060000151816020015182604001519550955095505050506102c3565b8060200151816000015182604001519550955095505050505b9250925092565b6000806000846001600160a01b0316866001600160a01b0316106102ef5784866102f2565b85855b6001600160a01b038083166000908152600260208181526040808420948616845293815283832084516060810186528154815260018201549281019290925290910154928101839052939550919350900361035357600093505050506103df565b60006103e8610363600382610fd2565b61036d9088610feb565b6103779190611002565b9050836001600160a01b0316886001600160a01b0316036103c357815161039f908290611024565b60208301516103ae9083610feb565b6103b89190611002565b9450505050506103df565b8082602001516103d39190611024565b82516103ae9083610feb565b9392505050565b6103ee610c6b565b6103f86000610c98565b565b6000610404610ce8565b836001600160a01b0316856001600160a01b03160361045d5760405162461bcd60e51b815260206004820152601060248201526f4964656e746963616c20746f6b656e7360801b60448201526064015b60405180910390fd5b60008311801561046d5750600082115b6104ab5760405162461bcd60e51b815260206004820152600f60248201526e496e76616c696420616d6f756e747360881b6044820152606401610454565b600080856001600160a01b0316876001600160a01b0316106104ce5785876104d1565b86865b91509150600080876001600160a01b0316896001600160a01b0316106104f85785876104fb565b86865b90925090506105156001600160a01b038516333085610d12565b61052a6001600160a01b038416333084610d12565b6001600160a01b038085166000908152600260208181526040808420948816845293905291812091820154900361057e5761056d6105688385610feb565b610d7f565b83825560018201839055955061060a565b80546002820154600091906105939086610feb565b61059d9190611002565b9050600082600101548360020154856105b69190610feb565b6105c09190611002565b90508082106105cf57806105d1565b815b9750848360000160008282546105e79190611024565b92505081905550838360010160008282546106029190611024565b909155505050505b8581600201600082825461061e9190611024565b90915550503360009081526003602090815260408083206001600160a01b038981168552908352818420908816845290915281208054889290610662908490611024565b909155505060408051848152602081018490529081018790526001600160a01b03808616919087169033907f43c967b388d3a4ccad3f7ab80167852e322e5a3fde9893f530252281b2ae8b709060600160405180910390a450505050506106c860018055565b949350505050565b6000806106db610ce8565b600080856001600160a01b0316876001600160a01b0316106106fe578587610701565b86865b3360009081526003602090815260408083206001600160a01b0380871685529083528184209085168452909152902054919350915085111561077e5760405162461bcd60e51b8152602060048201526016602482015275496e73756666696369656e74206c697175696469747960501b6044820152606401610454565b6001600160a01b03808316600090815260026020818152604080842094861684529390529190209081015481546107b59088610feb565b6107bf9190611002565b945080600201548160010154876107d69190610feb565b6107e09190611002565b9350848160000160008282546107f69190610fd2565b92505081905550838160010160008282546108119190610fd2565b925050819055508581600201600082825461082c9190610fd2565b90915550503360009081526003602090815260408083206001600160a01b038781168552908352818420908616845290915281208054889290610870908490610fd2565b9091555061088a90506001600160a01b0384163387610def565b61089e6001600160a01b0383163386610def565b866001600160a01b0316886001600160a01b0316106108be5783856108c1565b84845b604080518381526020810183905290810189905291965094506001600160a01b0380891691908a169033907fd765e08eef31c0983ecca03ecd166297ac485ecd5dd69e291c848f0a020333c19060600160405180910390a450505061092560018055565b935093915050565b610935610c6b565b6001600160a01b03811661095f57604051631e4fbdf760e01b815260006004820152602401610454565b61096881610c98565b50565b6000610975610ce8565b836001600160a01b0316856001600160a01b0316036109c35760405162461bcd60e51b815260206004820152600a60248201526929b0b6b2903a37b5b2b760b11b6044820152606401610454565b60008311610a045760405162461bcd60e51b815260206004820152600e60248201526d125b9d985b1a5908185b5bdd5b9d60921b6044820152606401610454565b600080856001600160a01b0316876001600160a01b031610610a27578587610a2a565b86865b6001600160a01b03808316600090815260026020818152604080842094861684529390529190209081015492945090925090610a9e5760405162461bcd60e51b8152602060048201526013602482015272141bdbdb08191bd95cc81b9bdd08195e1a5cdd606a1b6044820152606401610454565b610ab36001600160a01b038916333089610d12565b60006103e8610ac3600382610fd2565b610acd9089610feb565b610ad79190611002565b9050836001600160a01b0316896001600160a01b031603610b54578154610aff908290611024565b6001830154610b0e9083610feb565b610b189190611002565b945086826000016000828254610b2e9190611024565b9250508190555084826001016000828254610b499190610fd2565b90915550610baf9050565b808260010154610b649190611024565b8254610b709083610feb565b610b7a9190611002565b945086826001016000828254610b909190611024565b9091555050815485908390600090610ba9908490610fd2565b90915550505b85851015610bff5760405162461bcd60e51b815260206004820152601a60248201527f496e73756666696369656e74206f757470757420616d6f756e740000000000006044820152606401610454565b610c136001600160a01b0389163387610def565b60408051888152602081018790526001600160a01b03808b1692908c169133917fcd3829a3813dc3cdd188fd3d01dcf3268c16be2fdd2dd21d0665418816e46062910160405180910390a4505050506106c860018055565b6000546001600160a01b031633146103f85760405163118cdaa760e01b8152336004820152602401610454565b600080546001600160a01b038381166001600160a01b0319831681178455604051919092169283917f8be0079c531659141344cd1fd0a4f28419497f9722a3daafe3b4186f6b6457e09190a35050565b600260015403610d0b57604051633ee5aeb560e01b815260040160405180910390fd5b6002600155565b6040516001600160a01b038481166024830152838116604483015260648201839052610d799186918216906323b872dd906084015b604051602081830303815290604052915060e01b6020820180516001600160e01b038381831617835250505050610e25565b50505050565b60006003821115610de05750806000610d99600283611002565b610da4906001611024565b90505b81811015610dda57905080600281610dbf8186611002565b610dc99190611024565b610dd39190611002565b9050610da7565b50919050565b8115610dea575060015b919050565b6040516001600160a01b03838116602483015260448201839052610e2091859182169063a9059cbb90606401610d47565b505050565b600080602060008451602086016000885af180610e48576040513d6000823e3d81fd5b50506000513d91508115610e60578060011415610e6d565b6001600160a01b0384163b155b15610d7957604051635274afe760e01b81526001600160a01b0385166004820152602401610454565b80356001600160a01b0381168114610dea57600080fd5b60008060408385031215610ec057600080fd5b610ec983610e96565b9150610ed760208401610e96565b90509250929050565b600080600060608486031215610ef557600080fd5b610efe84610e96565b9250610f0c60208501610e96565b9150604084013590509250925092565b60008060008060808587031215610f3257600080fd5b610f3b85610e96565b9350610f4960208601610e96565b93969395505050506040820135916060013590565b600080600060608486031215610f7357600080fd5b610f7c84610e96565b9250610f8a60208501610e96565b9150610f9860408501610e96565b90509250925092565b600060208284031215610fb357600080fd5b6103df82610e96565b634e487b7160e01b600052601160045260246000fd5b81810381811115610fe557610fe5610fbc565b92915050565b8082028115828204841417610fe557610fe5610fbc565b60008261101f57634e487b7160e01b600052601260045260246000fd5b500490565b80820180821115610fe557610fe5610fbc56fea26469706673582212203c1a4cb5c7a9187b1fbae404a5cbc32f3278897da55c3b46eace0cd27950012b64736f6c63430008140033",
  "linkReferences": {},
  "deployedLinkReferences": {}
}